{
  "address": "0x7E51bd255C405CB65855aC25dd578EC922501211",
  "abi": [
    {
      "inputs": [
        {
          "internalType": "address",
          "name": "_communityImplementation",
          "type": "address"
        },
        {
          "internalType": "address",
          "name": "_treasury",
          "type": "address"
        }
      ],
      "stateMutability": "nonpayable",
      "type": "constructor"
    },
    {
      "anonymous": false,
      "inputs": [
        {
          "indexed": false,
          "internalType": "address",
          "name": "community",
          "type": "address"
        }
      ],
      "name": "NewCommunity",
      "type": "event"
    },
    {
      "anonymous": false,
      "inputs": [
        {
          "indexed": true,
          "internalType": "address",
          "name": "previousOwner",
          "type": "address"
        },
        {
          "indexed": true,
          "internalType": "address",
          "name": "newOwner",
          "type": "address"
        }
      ],
      "name": "OwnershipTransferred",
      "type": "event"
    },
    {
      "anonymous": false,
      "inputs": [
        {
          "indexed": false,
          "internalType": "address",
          "name": "newTreasury",
          "type": "address"
        }
      ],
      "name": "TreasuryUpdate",
      "type": "event"
    },
    {
      "inputs": [],
      "name": "communityImplementation",
      "outputs": [
        {
          "internalType": "address",
          "name": "",
          "type": "address"
        }
      ],
      "stateMutability": "view",
      "type": "function"
    },
    {
      "inputs": [
        {
          "components": [
            {
              "internalType": "string",
              "name": "name",
              "type": "string"
            },
            {
              "internalType": "string",
              "name": "symbol",
              "type": "string"
            },
            {
              "internalType": "string",
              "name": "rulesURI",
              "type": "string"
            },
            {
              "internalType": "uint256",
              "name": "membershipDeposit",
              "type": "uint256"
            },
            {
              "internalType": "uint256",
              "name": "membershipVotesThreshold",
              "type": "uint256"
            },
            {
              "internalType": "uint256",
              "name": "votingDuration",
              "type": "uint256"
            },
            {
              "internalType": "address[]",
              "name": "initialMembers",
              "type": "address[]"
            },
            {
              "internalType": "string[]",
              "name": "initialMembersDatas",
              "type": "string[]"
            }
          ],
          "internalType": "struct ICommunity.CommunityInfo",
          "name": "info",
          "type": "tuple"
        }
      ],
      "name": "createCommunity",
      "outputs": [],
      "stateMutability": "payable",
      "type": "function"
    },
    {
      "inputs": [],
      "name": "owner",
      "outputs": [
        {
          "internalType": "address",
          "name": "",
          "type": "address"
        }
      ],
      "stateMutability": "view",
      "type": "function"
    },
    {
      "inputs": [],
      "name": "renounceOwnership",
      "outputs": [],
      "stateMutability": "nonpayable",
      "type": "function"
    },
    {
      "inputs": [
        {
          "internalType": "address",
          "name": "newTreasury",
          "type": "address"
        }
      ],
      "name": "setTreasury",
      "outputs": [],
      "stateMutability": "nonpayable",
      "type": "function"
    },
    {
      "inputs": [
        {
          "internalType": "address",
          "name": "newOwner",
          "type": "address"
        }
      ],
      "name": "transferOwnership",
      "outputs": [],
      "stateMutability": "nonpayable",
      "type": "function"
    },
    {
      "inputs": [],
      "name": "treasury",
      "outputs": [
        {
          "internalType": "address",
          "name": "",
          "type": "address"
        }
      ],
      "stateMutability": "view",
      "type": "function"
    }
  ],
  "transactionHash": "0x98db700be44724973a840d86db46e5a29b9b2fa442516bd8c459c8a88cc9feab",
  "args": [
    "0x5D3EE2a6943B7e07120ac33dd5849074181be044",
    "0x5D44FbBb92C7916E00d61D4Cf862B4adBc645168"
  ],
  "numDeployments": 2,
  "solcInputHash": "7b0bed8cfe7492c6428b519d9a5f2ccf",
  "bytecode": "0x608060405234801561001057600080fd5b5060405161086538038061086583398101604081905261002f916100d5565b61003833610069565b600180546001600160a01b039384166001600160a01b03199182161790915560028054929093169116179055610108565b600080546001600160a01b038381166001600160a01b0319831681178455604051919092169283917f8be0079c531659141344cd1fd0a4f28419497f9722a3daafe3b4186f6b6457e09190a35050565b80516001600160a01b03811681146100d057600080fd5b919050565b600080604083850312156100e857600080fd5b6100f1836100b9565b91506100ff602084016100b9565b90509250929050565b61074e806101176000396000f3fe6080604052600436106100705760003560e01c80638e4254f41161004e5780638e4254f4146100e6578063dec0ef9f14610106578063f0f4426014610119578063f2fde38b1461013957600080fd5b806361d027b314610075578063715018a6146100b15780638da5cb5b146100c8575b600080fd5b34801561008157600080fd5b50600254610095906001600160a01b031681565b6040516001600160a01b03909116815260200160405180910390f35b3480156100bd57600080fd5b506100c6610159565b005b3480156100d457600080fd5b506000546001600160a01b0316610095565b3480156100f257600080fd5b50600154610095906001600160a01b031681565b6100c661011436600461044b565b61016d565b34801561012557600080fd5b506100c66101343660046104a5565b61022d565b34801561014557600080fd5b506100c66101543660046104a5565b610289565b610161610307565b61016b6000610361565b565b600154600090610185906001600160a01b03166103b1565b9050806001600160a01b031663827eea7634846040518363ffffffff1660e01b81526004016101b49190610626565b6000604051808303818588803b1580156101cd57600080fd5b505af11580156101e1573d6000803e3d6000fd5b50506040516001600160a01b03851681527fcd522b2652c2c15d89aa349a4671138c31887ef87872622bfa065cbc6c610b95935060200191506102219050565b60405180910390a15050565b610235610307565b600280546001600160a01b0319166001600160a01b0383169081179091556040519081527f8a3509a4057c89a5993a4a3140c2ebf7e829d325d8998eaa6c48adcff98b2cef9060200160405180910390a150565b610291610307565b6001600160a01b0381166102fb5760405162461bcd60e51b815260206004820152602660248201527f4f776e61626c653a206e6577206f776e657220697320746865207a65726f206160448201526564647265737360d01b60648201526084015b60405180910390fd5b61030481610361565b50565b6000546001600160a01b0316331461016b5760405162461bcd60e51b815260206004820181905260248201527f4f776e61626c653a2063616c6c6572206973206e6f7420746865206f776e657260448201526064016102f2565b600080546001600160a01b038381166001600160a01b0319831681178455604051919092169283917f8be0079c531659141344cd1fd0a4f28419497f9722a3daafe3b4186f6b6457e09190a35050565b6000763d602d80600a3d3981f3363d3d373d3d3d363d730000008260601b60e81c176000526e5af43d82803e903d91602b57fd5bf38260781b17602052603760096000f090506001600160a01b0381166104465760405162461bcd60e51b8152602060048201526016602482015275115490cc4c4d8dce8818dc99585d194819985a5b195960521b60448201526064016102f2565b919050565b60006020828403121561045d57600080fd5b813567ffffffffffffffff81111561047457600080fd5b8201610100818503121561048757600080fd5b9392505050565b80356001600160a01b038116811461044657600080fd5b6000602082840312156104b757600080fd5b6104878261048e565b6000808335601e198436030181126104d757600080fd5b830160208101925035905067ffffffffffffffff8111156104f757600080fd5b80360382131561050657600080fd5b9250929050565b81835281816020850137506000828201602090810191909152601f909101601f19169091010190565b6000808335601e1984360301811261054d57600080fd5b830160208101925035905067ffffffffffffffff81111561056d57600080fd5b8060051b360382131561050657600080fd5b8183526000602080850194508260005b858110156105bb576001600160a01b036105a88361048e565b168752958201959082019060010161058f565b509495945050505050565b60008383855260208086019550808560051b8301018460005b8781101561061957848303601f190189526105fa82886104c0565b61060585828461050d565b9a86019a94505050908301906001016105df565b5090979650505050505050565b60208152600061063683846104c0565b61010080602086015261064e6101208601838561050d565b925061065d60208701876104c0565b9250601f198087860301604088015261067785858461050d565b945061068660408901896104c0565b945091508087860301606088015261069f85858461050d565b945060608801356080880152608088013560a088015260a088013560c08801526106cc60c0890189610536565b94509150808786030160e08801526106e585858461057f565b94506106f460e0890189610536565b945091508087860301838801525061070d8484836105c6565b97965050505050505056fea264697066735822122092ca2fb8f870dd2bdb3c2177659717892f1d93601b151a0ee21c5ef8f3cea01b64736f6c63430008150033",
  "devdoc": {
    "kind": "dev",
    "methods": {
      "owner()": {
        "details": "Returns the address of the current owner."
      },
      "renounceOwnership()": {
        "details": "Leaves the contract without owner. It will not be possible to call `onlyOwner` functions. Can only be called by the current owner. NOTE: Renouncing ownership will leave the contract without an owner, thereby disabling any functionality that is only available to the owner."
      },
      "transferOwnership(address)": {
        "details": "Transfers ownership of the contract to a new account (`newOwner`). Can only be called by the current owner."
      }
    },
    "version": 1
  },
  "userdoc": {
    "events": {
      "NewCommunity(address)": {
        "notice": "Event emitted on creation of new community"
      },
      "TreasuryUpdate(address)": {
        "notice": "Event emitted on treasury update"
      }
    },
    "kind": "user",
    "methods": {
      "communityImplementation()": {
        "notice": "Address of the Community implementation"
      },
      "constructor": {
        "notice": "Contract constructor"
      },
      "createCommunity((string,string,string,uint256,uint256,uint256,address[],string[]))": {
        "notice": "Function used to set up a new community"
      },
      "treasury()": {
        "notice": "Address of the protocol treasurty"
      }
    },
    "version": 1
  },
  "storageLayout": {
    "storage": [
      {
        "astId": 2917,
        "contract": "contracts/CommunityFactory.sol:CommunityFactory",
        "label": "_owner",
        "offset": 0,
        "slot": "0",
        "type": "t_address"
      },
      {
        "astId": 8038,
        "contract": "contracts/CommunityFactory.sol:CommunityFactory",
        "label": "communityImplementation",
        "offset": 0,
        "slot": "1",
        "type": "t_address"
      },
      {
        "astId": 8041,
        "contract": "contracts/CommunityFactory.sol:CommunityFactory",
        "label": "treasury",
        "offset": 0,
        "slot": "2",
        "type": "t_address"
      }
    ],
    "types": {
      "t_address": {
        "encoding": "inplace",
        "label": "address",
        "numberOfBytes": "20"
      }
    }
  }
}