{
  "address": "0x5D3EE2a6943B7e07120ac33dd5849074181be044",
  "abi": [
    {
      "inputs": [],
      "stateMutability": "nonpayable",
      "type": "constructor"
    },
    {
      "anonymous": false,
      "inputs": [
        {
          "indexed": false,
          "internalType": "address",
          "name": "approver",
          "type": "address"
        },
        {
          "indexed": false,
          "internalType": "address",
          "name": "applicant",
          "type": "address"
        }
      ],
      "name": "ApplicatonApproval",
      "type": "event"
    },
    {
      "anonymous": false,
      "inputs": [
        {
          "indexed": true,
          "internalType": "address",
          "name": "owner",
          "type": "address"
        },
        {
          "indexed": true,
          "internalType": "address",
          "name": "approved",
          "type": "address"
        },
        {
          "indexed": true,
          "internalType": "uint256",
          "name": "tokenId",
          "type": "uint256"
        }
      ],
      "name": "Approval",
      "type": "event"
    },
    {
      "anonymous": false,
      "inputs": [
        {
          "indexed": true,
          "internalType": "address",
          "name": "owner",
          "type": "address"
        },
        {
          "indexed": true,
          "internalType": "address",
          "name": "operator",
          "type": "address"
        },
        {
          "indexed": false,
          "internalType": "bool",
          "name": "approved",
          "type": "bool"
        }
      ],
      "name": "ApprovalForAll",
      "type": "event"
    },
    {
      "anonymous": false,
      "inputs": [
        {
          "indexed": false,
          "internalType": "address",
          "name": "applicant",
          "type": "address"
        }
      ],
      "name": "DepositWithdrawal",
      "type": "event"
    },
    {
      "anonymous": false,
      "inputs": [
        {
          "indexed": false,
          "internalType": "uint8",
          "name": "version",
          "type": "uint8"
        }
      ],
      "name": "Initialized",
      "type": "event"
    },
    {
      "anonymous": false,
      "inputs": [
        {
          "indexed": false,
          "internalType": "address",
          "name": "account",
          "type": "address"
        },
        {
          "indexed": false,
          "internalType": "uint256",
          "name": "oldValue",
          "type": "uint256"
        },
        {
          "indexed": false,
          "internalType": "uint256",
          "name": "newValue",
          "type": "uint256"
        }
      ],
      "name": "MemberReputationChange",
      "type": "event"
    },
    {
      "anonymous": false,
      "inputs": [
        {
          "indexed": false,
          "internalType": "address",
          "name": "applicant",
          "type": "address"
        },
        {
          "indexed": false,
          "internalType": "string",
          "name": "dataURI",
          "type": "string"
        }
      ],
      "name": "NewApplication",
      "type": "event"
    },
    {
      "anonymous": false,
      "inputs": [
        {
          "indexed": false,
          "internalType": "address",
          "name": "member",
          "type": "address"
        },
        {
          "indexed": false,
          "internalType": "uint256",
          "name": "tokenId",
          "type": "uint256"
        }
      ],
      "name": "NewMembership",
      "type": "event"
    },
    {
      "anonymous": false,
      "inputs": [
        {
          "indexed": false,
          "internalType": "uint256",
          "name": "oldValue",
          "type": "uint256"
        },
        {
          "indexed": false,
          "internalType": "uint256",
          "name": "newValue",
          "type": "uint256"
        }
      ],
      "name": "TotalReputationChange",
      "type": "event"
    },
    {
      "anonymous": false,
      "inputs": [
        {
          "indexed": true,
          "internalType": "address",
          "name": "from",
          "type": "address"
        },
        {
          "indexed": true,
          "internalType": "address",
          "name": "to",
          "type": "address"
        },
        {
          "indexed": true,
          "internalType": "uint256",
          "name": "tokenId",
          "type": "uint256"
        }
      ],
      "name": "Transfer",
      "type": "event"
    },
    {
      "inputs": [],
      "name": "CLOCK_MODE",
      "outputs": [
        {
          "internalType": "string",
          "name": "",
          "type": "string"
        }
      ],
      "stateMutability": "view",
      "type": "function"
    },
    {
      "inputs": [],
      "name": "DENOMINATOR",
      "outputs": [
        {
          "internalType": "uint256",
          "name": "",
          "type": "uint256"
        }
      ],
      "stateMutability": "view",
      "type": "function"
    },
    {
      "inputs": [],
      "name": "PROTOCOL_FEE",
      "outputs": [
        {
          "internalType": "uint256",
          "name": "",
          "type": "uint256"
        }
      ],
      "stateMutability": "view",
      "type": "function"
    },
    {
      "inputs": [
        {
          "internalType": "address",
          "name": "",
          "type": "address"
        }
      ],
      "name": "applications",
      "outputs": [
        {
          "internalType": "string",
          "name": "dataURI",
          "type": "string"
        },
        {
          "internalType": "uint256",
          "name": "blockNumber",
          "type": "uint256"
        },
        {
          "internalType": "uint256",
          "name": "votesFor",
          "type": "uint256"
        }
      ],
      "stateMutability": "view",
      "type": "function"
    },
    {
      "inputs": [
        {
          "internalType": "string",
          "name": "dataURI",
          "type": "string"
        }
      ],
      "name": "applyForMembership",
      "outputs": [],
      "stateMutability": "payable",
      "type": "function"
    },
    {
      "inputs": [
        {
          "internalType": "address",
          "name": "to",
          "type": "address"
        },
        {
          "internalType": "uint256",
          "name": "tokenId",
          "type": "uint256"
        }
      ],
      "name": "approve",
      "outputs": [],
      "stateMutability": "nonpayable",
      "type": "function"
    },
    {
      "inputs": [
        {
          "internalType": "address",
          "name": "applicant",
          "type": "address"
        }
      ],
      "name": "approveMembership",
      "outputs": [],
      "stateMutability": "nonpayable",
      "type": "function"
    },
    {
      "inputs": [
        {
          "internalType": "address",
          "name": "owner",
          "type": "address"
        }
      ],
      "name": "balanceOf",
      "outputs": [
        {
          "internalType": "uint256",
          "name": "",
          "type": "uint256"
        }
      ],
      "stateMutability": "view",
      "type": "function"
    },
    {
      "inputs": [],
      "name": "clock",
      "outputs": [
        {
          "internalType": "uint48",
          "name": "",
          "type": "uint48"
        }
      ],
      "stateMutability": "view",
      "type": "function"
    },
    {
      "inputs": [
        {
          "internalType": "address",
          "name": "member",
          "type": "address"
        },
        {
          "internalType": "uint256",
          "name": "amount",
          "type": "uint256"
        }
      ],
      "name": "delegateReputation",
      "outputs": [],
      "stateMutability": "nonpayable",
      "type": "function"
    },
    {
      "inputs": [
        {
          "internalType": "address",
          "name": "",
          "type": "address"
        },
        {
          "internalType": "address",
          "name": "",
          "type": "address"
        }
      ],
      "name": "delegatedFromTo",
      "outputs": [
        {
          "internalType": "uint256",
          "name": "",
          "type": "uint256"
        }
      ],
      "stateMutability": "view",
      "type": "function"
    },
    {
      "inputs": [],
      "name": "factory",
      "outputs": [
        {
          "internalType": "contract ICommunityFactory",
          "name": "",
          "type": "address"
        }
      ],
      "stateMutability": "view",
      "type": "function"
    },
    {
      "inputs": [
        {
          "internalType": "uint256",
          "name": "tokenId",
          "type": "uint256"
        }
      ],
      "name": "getApproved",
      "outputs": [
        {
          "internalType": "address",
          "name": "",
          "type": "address"
        }
      ],
      "stateMutability": "view",
      "type": "function"
    },
    {
      "inputs": [
        {
          "internalType": "address",
          "name": "",
          "type": "address"
        },
        {
          "internalType": "address",
          "name": "",
          "type": "address"
        }
      ],
      "name": "hasVoted",
      "outputs": [
        {
          "internalType": "bool",
          "name": "",
          "type": "bool"
        }
      ],
      "stateMutability": "view",
      "type": "function"
    },
    {
      "inputs": [
        {
          "components": [
            {
              "internalType": "string",
              "name": "name",
              "type": "string"
            },
            {
              "internalType": "string",
              "name": "symbol",
              "type": "string"
            },
            {
              "internalType": "string",
              "name": "rulesURI",
              "type": "string"
            },
            {
              "internalType": "uint256",
              "name": "membershipDeposit",
              "type": "uint256"
            },
            {
              "internalType": "uint256",
              "name": "membershipVotesThreshold",
              "type": "uint256"
            },
            {
              "internalType": "uint256",
              "name": "votingDuration",
              "type": "uint256"
            },
            {
              "internalType": "address[]",
              "name": "initialMembers",
              "type": "address[]"
            },
            {
              "internalType": "string[]",
              "name": "initialMembersDatas",
              "type": "string[]"
            }
          ],
          "internalType": "struct ICommunity.CommunityInfo",
          "name": "info",
          "type": "tuple"
        }
      ],
      "name": "initialize",
      "outputs": [],
      "stateMutability": "payable",
      "type": "function"
    },
    {
      "inputs": [
        {
          "internalType": "address",
          "name": "owner",
          "type": "address"
        },
        {
          "internalType": "address",
          "name": "operator",
          "type": "address"
        }
      ],
      "name": "isApprovedForAll",
      "outputs": [
        {
          "internalType": "bool",
          "name": "",
          "type": "bool"
        }
      ],
      "stateMutability": "view",
      "type": "function"
    },
    {
      "inputs": [],
      "name": "membershipDeposit",
      "outputs": [
        {
          "internalType": "uint256",
          "name": "",
          "type": "uint256"
        }
      ],
      "stateMutability": "view",
      "type": "function"
    },
    {
      "inputs": [],
      "name": "membershipVotesThreshold",
      "outputs": [
        {
          "internalType": "uint256",
          "name": "",
          "type": "uint256"
        }
      ],
      "stateMutability": "view",
      "type": "function"
    },
    {
      "inputs": [],
      "name": "name",
      "outputs": [
        {
          "internalType": "string",
          "name": "",
          "type": "string"
        }
      ],
      "stateMutability": "view",
      "type": "function"
    },
    {
      "inputs": [],
      "name": "nextTokenId",
      "outputs": [
        {
          "internalType": "uint256",
          "name": "",
          "type": "uint256"
        }
      ],
      "stateMutability": "view",
      "type": "function"
    },
    {
      "inputs": [
        {
          "internalType": "uint256",
          "name": "tokenId",
          "type": "uint256"
        }
      ],
      "name": "ownerOf",
      "outputs": [
        {
          "internalType": "address",
          "name": "",
          "type": "address"
        }
      ],
      "stateMutability": "view",
      "type": "function"
    },
    {
      "inputs": [
        {
          "internalType": "address",
          "name": "member",
          "type": "address"
        },
        {
          "internalType": "uint256",
          "name": "blockNumber",
          "type": "uint256"
        }
      ],
      "name": "pastReputationOf",
      "outputs": [
        {
          "internalType": "uint256",
          "name": "",
          "type": "uint256"
        }
      ],
      "stateMutability": "view",
      "type": "function"
    },
    {
      "inputs": [
        {
          "internalType": "address",
          "name": "member",
          "type": "address"
        }
      ],
      "name": "reputationOf",
      "outputs": [
        {
          "internalType": "uint256",
          "name": "",
          "type": "uint256"
        }
      ],
      "stateMutability": "view",
      "type": "function"
    },
    {
      "inputs": [
        {
          "internalType": "address",
          "name": "member",
          "type": "address"
        }
      ],
      "name": "revokeReputation",
      "outputs": [],
      "stateMutability": "nonpayable",
      "type": "function"
    },
    {
      "inputs": [],
      "name": "rulesURI",
      "outputs": [
        {
          "internalType": "string",
          "name": "",
          "type": "string"
        }
      ],
      "stateMutability": "view",
      "type": "function"
    },
    {
      "inputs": [
        {
          "internalType": "address",
          "name": "from",
          "type": "address"
        },
        {
          "internalType": "address",
          "name": "to",
          "type": "address"
        },
        {
          "internalType": "uint256",
          "name": "tokenId",
          "type": "uint256"
        }
      ],
      "name": "safeTransferFrom",
      "outputs": [],
      "stateMutability": "nonpayable",
      "type": "function"
    },
    {
      "inputs": [
        {
          "internalType": "address",
          "name": "from",
          "type": "address"
        },
        {
          "internalType": "address",
          "name": "to",
          "type": "address"
        },
        {
          "internalType": "uint256",
          "name": "tokenId",
          "type": "uint256"
        },
        {
          "internalType": "bytes",
          "name": "data",
          "type": "bytes"
        }
      ],
      "name": "safeTransferFrom",
      "outputs": [],
      "stateMutability": "nonpayable",
      "type": "function"
    },
    {
      "inputs": [
        {
          "internalType": "address",
          "name": "operator",
          "type": "address"
        },
        {
          "internalType": "bool",
          "name": "approved",
          "type": "bool"
        }
      ],
      "name": "setApprovalForAll",
      "outputs": [],
      "stateMutability": "nonpayable",
      "type": "function"
    },
    {
      "inputs": [],
      "name": "startMembership",
      "outputs": [],
      "stateMutability": "nonpayable",
      "type": "function"
    },
    {
      "inputs": [
        {
          "internalType": "bytes4",
          "name": "interfaceId",
          "type": "bytes4"
        }
      ],
      "name": "supportsInterface",
      "outputs": [
        {
          "internalType": "bool",
          "name": "",
          "type": "bool"
        }
      ],
      "stateMutability": "view",
      "type": "function"
    },
    {
      "inputs": [],
      "name": "symbol",
      "outputs": [
        {
          "internalType": "string",
          "name": "",
          "type": "string"
        }
      ],
      "stateMutability": "view",
      "type": "function"
    },
    {
      "inputs": [
        {
          "internalType": "uint256",
          "name": "tokenId",
          "type": "uint256"
        }
      ],
      "name": "tokenURI",
      "outputs": [
        {
          "internalType": "string",
          "name": "",
          "type": "string"
        }
      ],
      "stateMutability": "view",
      "type": "function"
    },
    {
      "inputs": [
        {
          "internalType": "uint256",
          "name": "blockNumber",
          "type": "uint256"
        }
      ],
      "name": "totalPastReputation",
      "outputs": [
        {
          "internalType": "uint256",
          "name": "",
          "type": "uint256"
        }
      ],
      "stateMutability": "view",
      "type": "function"
    },
    {
      "inputs": [],
      "name": "totalReputation",
      "outputs": [
        {
          "internalType": "uint256",
          "name": "",
          "type": "uint256"
        }
      ],
      "stateMutability": "view",
      "type": "function"
    },
    {
      "inputs": [
        {
          "internalType": "address",
          "name": "from",
          "type": "address"
        },
        {
          "internalType": "address",
          "name": "to",
          "type": "address"
        },
        {
          "internalType": "uint256",
          "name": "tokenId",
          "type": "uint256"
        }
      ],
      "name": "transferFrom",
      "outputs": [],
      "stateMutability": "nonpayable",
      "type": "function"
    },
    {
      "inputs": [
        {
          "internalType": "address",
          "name": "",
          "type": "address"
        }
      ],
      "name": "unusedDepositOf",
      "outputs": [
        {
          "internalType": "uint256",
          "name": "",
          "type": "uint256"
        }
      ],
      "stateMutability": "view",
      "type": "function"
    },
    {
      "inputs": [],
      "name": "votingDuration",
      "outputs": [
        {
          "internalType": "uint256",
          "name": "",
          "type": "uint256"
        }
      ],
      "stateMutability": "view",
      "type": "function"
    },
    {
      "inputs": [
        {
          "internalType": "address",
          "name": "applicant",
          "type": "address"
        }
      ],
      "name": "withdrawUnusedDeposit",
      "outputs": [],
      "stateMutability": "nonpayable",
      "type": "function"
    }
  ],
  "transactionHash": "0x62fba4b753db3132febe9114e02e6ca19db815953ede5f0c2ed2da13d5a6138e",
  "args": [],
  "numDeployments": 2,
  "solcInputHash": "7b0bed8cfe7492c6428b519d9a5f2ccf",
  "bytecode": "0x60806040523480156200001157600080fd5b506200001c62000022565b620000e3565b600054610100900460ff16156200008f5760405162461bcd60e51b815260206004820152602760248201527f496e697469616c697a61626c653a20636f6e747261637420697320696e697469604482015266616c697a696e6760c81b606482015260840160405180910390fd5b60005460ff90811614620000e1576000805460ff191660ff9081179091556040519081527f7f26b83ff96e1f2b6a682f133852f6798a09c465da95921460cefb38474024989060200160405180910390a15b565b61375080620000f36000396000f3fe6080604052600436106102255760003560e01c80637c3bf42d11610123578063a4f9cd9d116100ab578063d3b302e71161006f578063d3b302e71461069f578063db89c044146106b2578063e5835241146106d2578063e985e9c5146106e7578063eef0dcd81461073057600080fd5b8063a4f9cd9d146105fc578063a81f95a614610629578063b88d4fde1461063f578063c45a01551461065f578063c87b56dd1461067f57600080fd5b8063918f8674116100f2578063918f86741461056557806391ddadf41461057b57806395d89b41146105a7578063a0c9064d146105bc578063a22cb465146105dc57600080fd5b80637c3bf42d146104f85780637ce42760146105275780637e5709e21461053c578063827eea761461055257600080fd5b80634bf5d7e9116101b15780636f05953a116101755780636f05953a1461046d57806370a082311461048257806375794a3c146104a2578063779750d9146104b857806379a68cf1146104d857600080fd5b80634bf5d7e91461038c5780634d4d2b1c146103d2578063554ce9ee1461040d578063579fe55b1461042d5780636352211e1461044d57600080fd5b80630b4501fd116101f85780630b4501fd146102db578063114acc91146102fe578063132002fc1461033657806323b872dd1461034c57806342842e0e1461036c57600080fd5b806301ffc9a71461022a57806306fdde031461025f578063081812fc14610281578063095ea7b3146102b9575b600080fd5b34801561023657600080fd5b5061024a610245366004612dc3565b610750565b60405190151581526020015b60405180910390f35b34801561026b57600080fd5b506102746107a2565b6040516102569190612e30565b34801561028d57600080fd5b506102a161029c366004612e43565b610834565b6040516001600160a01b039091168152602001610256565b3480156102c557600080fd5b506102d96102d4366004612e71565b61085b565b005b3480156102e757600080fd5b506102f0606481565b604051908152602001610256565b34801561030a57600080fd5b506102f0610319366004612e9d565b60a060209081526000928352604080842090915290825290205481565b34801561034257600080fd5b506102f0609b5481565b34801561035857600080fd5b506102d9610367366004612ed6565b610975565b34801561037857600080fd5b506102d9610387366004612ed6565b6109a6565b34801561039857600080fd5b5060408051808201909152601d81527f6d6f64653d626c6f636b6e756d6265722666726f6d3d64656661756c740000006020820152610274565b3480156103de57600080fd5b5061024a6103ed366004612e9d565b609d60209081526000928352604080842090915290825290205460ff1681565b34801561041957600080fd5b506102d9610428366004612e71565b6109c1565b34801561043957600080fd5b506102d9610448366004612f17565b610c49565b34801561045957600080fd5b506102a1610468366004612e43565b610dc0565b34801561047957600080fd5b506102d9610e20565b34801561048e57600080fd5b506102f061049d366004612f17565b610f3c565b3480156104ae57600080fd5b506102f0609f5481565b3480156104c457600080fd5b506102d96104d3366004612f17565b610fc2565b3480156104e457600080fd5b506102d96104f3366004612f17565b611266565b34801561050457600080fd5b50610518610513366004612f17565b61151d565b60405161025693929190612f34565b34801561053357600080fd5b506102746115c7565b34801561054857600080fd5b506102f0609a5481565b6102d9610560366004612f59565b611655565b34801561057157600080fd5b506102f06103e881565b34801561058757600080fd5b50610590611ad4565b60405165ffffffffffff9091168152602001610256565b3480156105b357600080fd5b50610274611ae4565b3480156105c857600080fd5b506102f06105d7366004612e71565b611af3565b3480156105e857600080fd5b506102d96105f7366004612f95565b611b8d565b34801561060857600080fd5b506102f0610617366004612f17565b609e6020526000908152604090205481565b34801561063557600080fd5b506102f060995481565b34801561064b57600080fd5b506102d961065a366004612fde565b611b98565b34801561066b57600080fd5b506097546102a1906001600160a01b031681565b34801561068b57600080fd5b5061027461069a366004612e43565b611bd0565b6102d96106ad3660046130be565b611c44565b3480156106be57600080fd5b506102f06106cd366004612f17565b611e79565b3480156106de57600080fd5b506102f0611ea9565b3480156106f357600080fd5b5061024a610702366004612e9d565b6001600160a01b039182166000908152606a6020908152604080832093909416825291909152205460ff1690565b34801561073c57600080fd5b506102f061074b366004612e43565b611ec3565b60006001600160e01b031982166380ac58cd60e01b148061078157506001600160e01b03198216635b5e139f60e01b145b8061079c57506301ffc9a760e01b6001600160e01b03198316145b92915050565b6060606580546107b190613130565b80601f01602080910402602001604051908101604052809291908181526020018280546107dd90613130565b801561082a5780601f106107ff5761010080835404028352916020019161082a565b820191906000526020600020905b81548152906001019060200180831161080d57829003601f168201915b5050505050905090565b600061083f82611f46565b506000908152606960205260409020546001600160a01b031690565b600061086682610dc0565b9050806001600160a01b0316836001600160a01b0316036108d85760405162461bcd60e51b815260206004820152602160248201527f4552433732313a20617070726f76616c20746f2063757272656e74206f776e656044820152603960f91b60648201526084015b60405180910390fd5b336001600160a01b03821614806108f457506108f48133610702565b6109665760405162461bcd60e51b815260206004820152603d60248201527f4552433732313a20617070726f76652063616c6c6572206973206e6f7420746f60448201527f6b656e206f776e6572206f7220617070726f76656420666f7220616c6c00000060648201526084016108cf565b6109708383611fa8565b505050565b61097f3382612016565b61099b5760405162461bcd60e51b81526004016108cf9061316a565b610970838383612095565b61097083838360405180602001604052806000815250611b98565b60006109cc33610f3c565b116109e95760405162461bcd60e51b81526004016108cf906131b7565b60008111610a455760405162461bcd60e51b8152602060048201526024808201527f436f6d6d756e6974793a20616d6f756e742073686f756c6420626520706f73696044820152637469766560e01b60648201526084016108cf565b6000610a5083610f3c565b11610aa95760405162461bcd60e51b815260206004820152602360248201527f436f6d6d756e6974793a207265636569766572206973206e6f742061206d656d6044820152623132b960e91b60648201526084016108cf565b336000908152609e6020526040902054811115610b185760405162461bcd60e51b815260206004820152602760248201527f436f6d6d756e6974793a206e6f7420656e6f75676820756e75736564207265706044820152663aba30ba34b7b760c91b60648201526084016108cf565b336000908152609e602052604081208054839290610b3790849061320e565b909155505033600090815260a0602090815260408083206001600160a01b0386168452825280832084905560a190915281208190610b80906120e9610b7b866120f5565b612162565b604080516001600160a01b03881681526001600160e01b03938416602082018190529290931690830181905290935091507fe936bd647f806674a3c99137b6d93c567715e1bc8b1978e56be95556b7c902c99060600160405180910390a1610bef60a26120e9610b7b866120f5565b6040516001600160e01b039283169450911691507fcdfb1d8d16670ddf4727c4dfeebc7ff76daf8565000c465058eeebc35c14370090610c3b9084908490918252602082015260400190565b60405180910390a150505050565b6000610c5433610f3c565b11610c715760405162461bcd60e51b81526004016108cf906131b7565b33600090815260a0602090815260408083206001600160a01b038516845290915290205480610ce25760405162461bcd60e51b815260206004820152601c60248201527f436f6d6d756e6974793a206e6f7468696e6720746f207265766f6b650000000060448201526064016108cf565b33600081815260a0602090815260408083206001600160a01b03871684528252808320839055928252609e90529081208054839290610d22908490613221565b90915550506001600160a01b038216600090815260a1602052604081208190610d51906121ab610b7b866120f5565b604080516001600160a01b03881681526001600160e01b03938416602082018190529290931690830181905290935091507fe936bd647f806674a3c99137b6d93c567715e1bc8b1978e56be95556b7c902c99060600160405180910390a1610bef60a26121ab610b7b866120f5565b6000818152606760205260408120546001600160a01b03168061079c5760405162461bcd60e51b8152602060048201526018602482015277115490cdcc8c4e881a5b9d985b1a59081d1bdad95b88125160421b60448201526064016108cf565b610e2933610f3c565b15610e465760405162461bcd60e51b81526004016108cf90613234565b609a54336000908152609c60205260409020600101546103e89190610e6a90611ec3565b610e74919061326b565b610e7e9190613298565b336000908152609c60205260409020600201541015610edf5760405162461bcd60e51b815260206004820152601b60248201527f436f6d6d756e6974793a206e6f7420656e6f75676820766f746573000000000060448201526064016108cf565b609f805460009182610ef0836132ba565b919050559050610f0033826121b7565b60408051338152602081018390527f0875d6307b468f8deacd6a2e7c7a161f8ad13d9379838fa5c87b1df86b8fd9e9910160405180910390a150565b60006001600160a01b038216610fa65760405162461bcd60e51b815260206004820152602960248201527f4552433732313a2061646472657373207a65726f206973206e6f7420612076616044820152683634b21037bbb732b960b91b60648201526084016108cf565b506001600160a01b031660009081526068602052604090205490565b6000610fcd82610f3c565b1161102c5760405162461bcd60e51b815260206004820152602960248201527f436f6d6d756e6974793a2063616e2774207769746864726177206d656d626572604482015268206465706f7369747360b81b60648201526084016108cf565b609b546001600160a01b0382166000908152609c60205260409020600101546110559190613221565b61105d611ad4565b65ffffffffffff16116110cd5760405162461bcd60e51b815260206004820152603260248201527f436f6d6d756e6974793a206170706c69636174696f6e20766f74696e672068616044820152711cc81b9bdd08199a5b9a5cda1959081e595d60721b60648201526084016108cf565b609a546001600160a01b0382166000908152609c60205260409020600101546103e891906110fa90611ec3565b611104919061326b565b61110e9190613298565b6001600160a01b0382166000908152609c60205260409020600201541061118c5760405162461bcd60e51b815260206004820152602c60248201527f436f6d6d756e6974793a206170706c69636174696f6e20766f74696e6720686160448201526b1cc81b9bdd0819985a5b195960a21b60648201526084016108cf565b6001600160a01b038082166000908152609e60209081526040808320805493905560975481516361d027b360e01b81529151939461122594869492909116926361d027b39260048083019391928290030181865afa1580156111f2573d6000803e3d6000fd5b505050506040513d601f19601f8201168201806040525081019061121691906132d3565b6001600160a01b031690612342565b6040516001600160a01b03831681527f88cb4dc433393f02916a23753921745ab91fd9cc159f780df934dfeea21175bd906020015b60405180910390a15050565b600061127133610f3c565b1161128e5760405162461bcd60e51b81526004016108cf906131b7565b61129781610f3c565b156112b45760405162461bcd60e51b81526004016108cf90613234565b6001600160a01b0381166000908152609c60205260408120600101549081900361132c5760405162461bcd60e51b815260206004820152602360248201527f436f6d6d756e6974793a206170706c6963616e7420646f6573206e6f742065786044820152621a5cdd60ea1b60648201526084016108cf565b80611335611ad4565b65ffffffffffff16116113985760405162461bcd60e51b815260206004820152602560248201527f436f6d6d756e6974793a20766f74696e6720686173206e6f742073746172746560448201526419081e595d60da1b60648201526084016108cf565b609b546113a59082613221565b6113ad611ad4565b65ffffffffffff1611156114035760405162461bcd60e51b815260206004820152601e60248201527f436f6d6d756e6974793a20766f74696e67206861732066696e6973686564000060448201526064016108cf565b336000908152609d602090815260408083206001600160a01b038616845290915290205460ff16156114775760405162461bcd60e51b815260206004820152601860248201527f436f6d6d756e6974793a20616c726561647920766f746564000000000000000060448201526064016108cf565b336000818152609d602090815260408083206001600160a01b03871684529091529020805460ff191660011790556114af9082611af3565b6001600160a01b0383166000908152609c6020526040812060020180549091906114da908490613221565b9091555050604080513381526001600160a01b03841660208201527f2933cba0ec91266e535ae70814be04034e1796dc8c78e4c8d7bc46bc682b397f910161125a565b609c6020526000908152604090208054819061153890613130565b80601f016020809104026020016040519081016040528092919081815260200182805461156490613130565b80156115b15780601f10611586576101008083540402835291602001916115b1565b820191906000526020600020905b81548152906001019060200180831161159457829003601f168201915b5050505050908060010154908060020154905083565b609880546115d490613130565b80601f016020809104026020016040519081016040528092919081815260200182805461160090613130565b801561164d5780601f106116225761010080835404028352916020019161164d565b820191906000526020600020905b81548152906001019060200180831161163057829003601f168201915b505050505081565b600054610100900460ff16158080156116755750600054600160ff909116105b8061168f5750303b15801561168f575060005460ff166001145b6116f25760405162461bcd60e51b815260206004820152602e60248201527f496e697469616c697a61626c653a20636f6e747261637420697320616c72656160448201526d191e481a5b9a5d1a585b1a5e995960921b60648201526084016108cf565b6000805460ff191660011790558015611715576000805461ff0019166101001790555b61172260c08301836132f0565b6117319150606084013561326b565b341461177f5760405162461bcd60e51b815260206004820152601c60248201527f436f6d6d756e6974793a20696e636f7272656374206465706f7369740000000060448201526064016108cf565b61180861178c8380613341565b8080601f0160208091040260200160405190810160405280939291908181526020018383808284376000920191909152506117ce925050506020850185613341565b8080601f01602080910402602001604051908101604052809392919081815260200183838082843760009201919091525061245b92505050565b60006103e861181c6064606086013561326b565b6118269190613298565b90503361188261183960c08601866132f0565b61184491508461326b565b826001600160a01b03166361d027b36040518163ffffffff1660e01b8152600401602060405180830381865afa1580156111f2573d6000803e3d6000fd5b61188f60e08501856132f0565b905061189e60c08601866132f0565b9050146118ed5760405162461bcd60e51b815260206004820152601a60248201527f436f6d6d756e6974793a206c656e677468206d69736d6174636800000000000060448201526064016108cf565b60005b6118fd60c08601866132f0565b9050811015611a2b57600061191560c08701876132f0565b8381811061192557611925613388565b905060200201602081019061193a9190612f17565b905061194960e08701876132f0565b8381811061195957611959613388565b905060200281019061196b9190613341565b6001600160a01b0383166000908152609c602052604090209161198f9190836133ec565b5061199e84606088013561320e565b6001600160a01b0382166000908152609e6020526040812080549091906119c6908490613221565b909155506119d6905081836121b7565b604080516001600160a01b0383168152602081018490527f0875d6307b468f8deacd6a2e7c7a161f8ad13d9379838fa5c87b1df86b8fd9e9910160405180910390a15080611a23816132ba565b9150506118f0565b50611a3960c08501856132f0565b609f5550609780546001600160a01b0319166001600160a01b038316179055611a656040850185613341565b609891611a739190836133ec565b50505060608201356099556080820135609a5560a0820135609b558015611ad0576000805461ff0019169055604051600181527f7f26b83ff96e1f2b6a682f133852f6798a09c465da95921460cefb38474024989060200161125a565b5050565b6000611adf4361248c565b905090565b6060606680546107b190613130565b600080611afe611ad4565b90508065ffffffffffff168310611b525760405162461bcd60e51b81526020600482015260186024820152770436f6d6d756e6974793a20667574757265206c6f6f6b75760441b60448201526064016108cf565b611b7c611b5e846124f3565b6001600160a01b038616600090815260a16020526040902090612558565b6001600160e01b0316949350505050565b611ad033838361260d565b611ba23383612016565b611bbe5760405162461bcd60e51b81526004016108cf9061316a565b611bca848484846126db565b50505050565b6060611bdb82611f46565b6000611bf260408051602081019091526000815290565b90506000815111611c125760405180602001604052806000815250611c3d565b80611c1c8461270e565b604051602001611c2d9291906134ad565b6040516020818303038152906040525b9392505050565b611c4d33610f3c565b15611c6a5760405162461bcd60e51b81526004016108cf90613234565b336000908152609c602052604090206001015415611cca5760405162461bcd60e51b815260206004820152601a60248201527f436f6d6d756e6974793a20616c7265616479206170706c69656400000000000060448201526064016108cf565b6099543414611d1b5760405162461bcd60e51b815260206004820152601c60248201527f436f6d6d756e6974793a20696e636f7272656374206465706f7369740000000060448201526064016108cf565b60006103e8611d2b60643461326b565b611d359190613298565b9050611d8e81609760009054906101000a90046001600160a01b03166001600160a01b03166361d027b36040518163ffffffff1660e01b8152600401602060405180830381865afa1580156111f2573d6000803e3d6000fd5b611d98813461320e565b336000908152609e602052604081208054909190611db7908490613221565b90915550506040805160806020601f86018190040282018101909252606081018481529091829190869086908190850183828082843760009201829052509385525050436020808501919091526040938401839052338352609c9052502081518190611e2390826134dc565b5060208201516001820155604091820151600290910155517f61d9c1c60d18166430e232b0032dc6dca6b6f8ecb9fae9972cd57989dd88020f90611e6c9033908690869061359c565b60405180910390a1505050565b6001600160a01b038116600090815260a160205260408120611e9a906127a1565b6001600160e01b031692915050565b6000611eb560a26127a1565b6001600160e01b0316905090565b600080611ece611ad4565b90508065ffffffffffff168310611f225760405162461bcd60e51b81526020600482015260186024820152770436f6d6d756e6974793a20667574757265206c6f6f6b75760441b60448201526064016108cf565b611f36611f2e846124f3565b60a290612558565b6001600160e01b03169392505050565b6000818152606760205260409020546001600160a01b0316611fa55760405162461bcd60e51b8152602060048201526018602482015277115490cdcc8c4e881a5b9d985b1a59081d1bdad95b88125160421b60448201526064016108cf565b50565b600081815260696020526040902080546001600160a01b0319166001600160a01b0384169081179091558190611fdd82610dc0565b6001600160a01b03167f8c5be1e5ebec7d5bd14f71427d1e84f3dd0314c0f7b2291e5b200ac8c7c3b92560405160405180910390a45050565b60008061202283610dc0565b9050806001600160a01b0316846001600160a01b0316148061206957506001600160a01b038082166000908152606a602090815260408083209388168352929052205460ff165b8061208d5750836001600160a01b031661208284610834565b6001600160a01b0316145b949350505050565b60405162461bcd60e51b8152602060048201526024808201527f436f6d6d756e6974793a20534254207472616e7366657220697320666f726269604482015263323232b760e11b60648201526084016108cf565b6000611c3d82846135dc565b60006001600160e01b0382111561215e5760405162461bcd60e51b815260206004820152602760248201527f53616665436173743a2076616c756520646f65736e27742066697420696e20326044820152663234206269747360c81b60648201526084016108cf565b5090565b60008061219e612180612173611ad4565b65ffffffffffff166124f3565b61219661218c886127a1565b868863ffffffff16565b8791906127db565b915091505b935093915050565b6000611c3d8284613603565b6001600160a01b03821661220d5760405162461bcd60e51b815260206004820181905260248201527f4552433732313a206d696e7420746f20746865207a65726f206164647265737360448201526064016108cf565b6000818152606760205260409020546001600160a01b0316156122725760405162461bcd60e51b815260206004820152601c60248201527f4552433732313a20746f6b656e20616c7265616479206d696e7465640000000060448201526064016108cf565b6000818152606760205260409020546001600160a01b0316156122d75760405162461bcd60e51b815260206004820152601c60248201527f4552433732313a20746f6b656e20616c7265616479206d696e7465640000000060448201526064016108cf565b6001600160a01b038216600081815260686020908152604080832080546001019055848352606790915280822080546001600160a01b0319168417905551839291907fddf252ad1be2c89b69c2b068fc378daa952ba7f163c4a11628f55a4df523b3ef908290a45050565b804710156123925760405162461bcd60e51b815260206004820152601d60248201527f416464726573733a20696e73756666696369656e742062616c616e636500000060448201526064016108cf565b6000826001600160a01b03168260405160006040518083038185875af1925050503d80600081146123df576040519150601f19603f3d011682016040523d82523d6000602084013e6123e4565b606091505b50509050806109705760405162461bcd60e51b815260206004820152603a60248201527f416464726573733a20756e61626c6520746f2073656e642076616c75652c207260448201527f6563697069656e74206d6179206861766520726576657274656400000000000060648201526084016108cf565b600054610100900460ff166124825760405162461bcd60e51b81526004016108cf90613623565b611ad082826127e9565b600065ffffffffffff82111561215e5760405162461bcd60e51b815260206004820152602660248201527f53616665436173743a2076616c756520646f65736e27742066697420696e203460448201526538206269747360d01b60648201526084016108cf565b600063ffffffff82111561215e5760405162461bcd60e51b815260206004820152602660248201527f53616665436173743a2076616c756520646f65736e27742066697420696e203360448201526532206269747360d01b60648201526084016108cf565b8154600090818160058111156125b557600061257384612829565b61257d908561320e565b60008881526020902090915081015463ffffffff90811690871610156125a5578091506125b3565b6125b0816001613221565b92505b505b60006125c387878585612911565b905080156125ff576125e8876125da60018461320e565b600091825260209091200190565b5464010000000090046001600160e01b0316612602565b60005b979650505050505050565b816001600160a01b0316836001600160a01b03160361266e5760405162461bcd60e51b815260206004820152601960248201527f4552433732313a20617070726f766520746f2063616c6c65720000000000000060448201526064016108cf565b6001600160a01b038381166000818152606a6020908152604080832094871680845294825291829020805460ff191686151590811790915591519182527f17307eab39ab6107e8899845ad3d59bd9653f200f220920489ca2b5937696c31910160405180910390a3505050565b6126e6848484612095565b6126f28484848461296f565b611bca5760405162461bcd60e51b81526004016108cf9061366e565b6060600061271b83612a6d565b600101905060008167ffffffffffffffff81111561273b5761273b612fc8565b6040519080825280601f01601f191660200182016040528015612765576020820181803683370190505b5090508181016020015b600019016f181899199a1a9b1b9c1cb0b131b232b360811b600a86061a8153600a850494508461276f57509392505050565b805460009080156127d2576127bb836125da60018461320e565b5464010000000090046001600160e01b0316611c3d565b60009392505050565b60008061219e858585612b45565b600054610100900460ff166128105760405162461bcd60e51b81526004016108cf90613623565b606561281c83826134dc565b50606661097082826134dc565b60008160000361283b57506000919050565b6000600161284884612ce8565b901c6001901b9050600181848161286157612861613282565b048201901c9050600181848161287957612879613282565b048201901c9050600181848161289157612891613282565b048201901c905060018184816128a9576128a9613282565b048201901c905060018184816128c1576128c1613282565b048201901c905060018184816128d9576128d9613282565b048201901c905060018184816128f1576128f1613282565b048201901c9050611c3d8182858161290b5761290b613282565b04612d7c565b60005b818310156129675760006129288484612d92565b60008781526020902090915063ffffffff86169082015463ffffffff16111561295357809250612961565b61295e816001613221565b93505b50612914565b509392505050565b60006001600160a01b0384163b15612a6557604051630a85bd0160e11b81526001600160a01b0385169063150b7a02906129b39033908990889088906004016136c0565b6020604051808303816000875af19250505080156129ee575060408051601f3d908101601f191682019092526129eb918101906136fd565b60015b612a4b573d808015612a1c576040519150601f19603f3d011682016040523d82523d6000602084013e612a21565b606091505b508051600003612a435760405162461bcd60e51b81526004016108cf9061366e565b805181602001fd5b6001600160e01b031916630a85bd0160e11b14905061208d565b50600161208d565b60008072184f03e93ff9f4daa797ed6e38ed64bf6a1f0160401b8310612aac5772184f03e93ff9f4daa797ed6e38ed64bf6a1f0160401b830492506040015b6d04ee2d6d415b85acef81000000008310612ad8576d04ee2d6d415b85acef8100000000830492506020015b662386f26fc100008310612af657662386f26fc10000830492506010015b6305f5e1008310612b0e576305f5e100830492506008015b6127108310612b2257612710830492506004015b60648310612b34576064830492506002015b600a831061079c5760010192915050565b825460009081908015612c8e576000612b63876125da60018561320e565b60408051808201909152905463ffffffff8082168084526401000000009092046001600160e01b031660208401529192509087161015612be55760405162461bcd60e51b815260206004820152601b60248201527f436865636b706f696e743a2064656372656173696e67206b657973000000000060448201526064016108cf565b805163ffffffff808816911603612c2e5784612c06886125da60018661320e565b80546001600160e01b03929092166401000000000263ffffffff909216919091179055612c7e565b6040805180820190915263ffffffff80881682526001600160e01b0380881660208085019182528b54600181018d5560008d81529190912094519151909216640100000000029216919091179101555b6020015192508391506121a39050565b50506040805180820190915263ffffffff80851682526001600160e01b0380851660208085019182528854600181018a5560008a8152918220955192519093166401000000000291909316179201919091559050816121a3565b600080608083901c15612cfd57608092831c92015b604083901c15612d0f57604092831c92015b602083901c15612d2157602092831c92015b601083901c15612d3357601092831c92015b600883901c15612d4557600892831c92015b600483901c15612d5757600492831c92015b600283901c15612d6957600292831c92015b600183901c1561079c5760010192915050565b6000818310612d8b5781611c3d565b5090919050565b6000612da16002848418613298565b611c3d90848416613221565b6001600160e01b031981168114611fa557600080fd5b600060208284031215612dd557600080fd5b8135611c3d81612dad565b60005b83811015612dfb578181015183820152602001612de3565b50506000910152565b60008151808452612e1c816020860160208601612de0565b601f01601f19169290920160200192915050565b602081526000611c3d6020830184612e04565b600060208284031215612e5557600080fd5b5035919050565b6001600160a01b0381168114611fa557600080fd5b60008060408385031215612e8457600080fd5b8235612e8f81612e5c565b946020939093013593505050565b60008060408385031215612eb057600080fd5b8235612ebb81612e5c565b91506020830135612ecb81612e5c565b809150509250929050565b600080600060608486031215612eeb57600080fd5b8335612ef681612e5c565b92506020840135612f0681612e5c565b929592945050506040919091013590565b600060208284031215612f2957600080fd5b8135611c3d81612e5c565b606081526000612f476060830186612e04565b60208301949094525060400152919050565b600060208284031215612f6b57600080fd5b813567ffffffffffffffff811115612f8257600080fd5b82016101008185031215611c3d57600080fd5b60008060408385031215612fa857600080fd5b8235612fb381612e5c565b915060208301358015158114612ecb57600080fd5b634e487b7160e01b600052604160045260246000fd5b60008060008060808587031215612ff457600080fd5b8435612fff81612e5c565b9350602085013561300f81612e5c565b925060408501359150606085013567ffffffffffffffff8082111561303357600080fd5b818701915087601f83011261304757600080fd5b81358181111561305957613059612fc8565b604051601f8201601f19908116603f0116810190838211818310171561308157613081612fc8565b816040528281528a602084870101111561309a57600080fd5b82602086016020830137600060208483010152809550505050505092959194509250565b600080602083850312156130d157600080fd5b823567ffffffffffffffff808211156130e957600080fd5b818501915085601f8301126130fd57600080fd5b81358181111561310c57600080fd5b86602082850101111561311e57600080fd5b60209290920196919550909350505050565b600181811c9082168061314457607f821691505b60208210810361316457634e487b7160e01b600052602260045260246000fd5b50919050565b6020808252602d908201527f4552433732313a2063616c6c6572206973206e6f7420746f6b656e206f776e6560408201526c1c881bdc88185c1c1c9bdd9959609a1b606082015260800190565b60208082526021908201527f436f6d6d756e6974793a2073656e646572206973206e6f742061206d656d62656040820152603960f91b606082015260800190565b634e487b7160e01b600052601160045260246000fd5b8181038181111561079c5761079c6131f8565b8082018082111561079c5761079c6131f8565b6020808252601b908201527f436f6d6d756e6974793a20616c72656164792061206d656d6265720000000000604082015260600190565b808202811582820484141761079c5761079c6131f8565b634e487b7160e01b600052601260045260246000fd5b6000826132b557634e487b7160e01b600052601260045260246000fd5b500490565b6000600182016132cc576132cc6131f8565b5060010190565b6000602082840312156132e557600080fd5b8151611c3d81612e5c565b6000808335601e1984360301811261330757600080fd5b83018035915067ffffffffffffffff82111561332257600080fd5b6020019150600581901b360382131561333a57600080fd5b9250929050565b6000808335601e1984360301811261335857600080fd5b83018035915067ffffffffffffffff82111561337357600080fd5b60200191503681900382131561333a57600080fd5b634e487b7160e01b600052603260045260246000fd5b601f82111561097057600081815260208120601f850160051c810160208610156133c55750805b601f850160051c820191505b818110156133e4578281556001016133d1565b505050505050565b67ffffffffffffffff83111561340457613404612fc8565b613418836134128354613130565b8361339e565b6000601f84116001811461344c57600085156134345750838201355b600019600387901b1c1916600186901b1783556134a6565b600083815260209020601f19861690835b8281101561347d578685013582556020948501946001909201910161345d565b508682101561349a5760001960f88860031b161c19848701351681555b505060018560011b0183555b5050505050565b600083516134bf818460208801612de0565b8351908301906134d3818360208801612de0565b01949350505050565b815167ffffffffffffffff8111156134f6576134f6612fc8565b61350a816135048454613130565b8461339e565b602080601f83116001811461353f57600084156135275750858301515b600019600386901b1c1916600185901b1785556133e4565b600085815260208120601f198616915b8281101561356e5788860151825594840194600190910190840161354f565b508582101561358c5787850151600019600388901b60f8161c191681555b5050505050600190811b01905550565b6001600160a01b03841681526040602082018190528101829052818360608301376000818301606090810191909152601f909201601f1916010192915050565b6001600160e01b038181168382160190808211156135fc576135fc6131f8565b5092915050565b6001600160e01b038281168282160390808211156135fc576135fc6131f8565b6020808252602b908201527f496e697469616c697a61626c653a20636f6e7472616374206973206e6f74206960408201526a6e697469616c697a696e6760a81b606082015260800190565b60208082526032908201527f4552433732313a207472616e7366657220746f206e6f6e20455243373231526560408201527131b2b4bb32b91034b6b83632b6b2b73a32b960711b606082015260800190565b6001600160a01b03858116825284166020820152604081018390526080606082018190526000906136f390830184612e04565b9695505050505050565b60006020828403121561370f57600080fd5b8151611c3d81612dad56fea26469706673582212202ddf2db3478387ddbfcbf7accc0625ad9b985bc3b5f0e3758d80e630c9bdf88364736f6c63430008150033",
  "devdoc": {
    "events": {
      "Approval(address,address,uint256)": {
        "details": "Emitted when `owner` enables `approved` to manage the `tokenId` token."
      },
      "ApprovalForAll(address,address,bool)": {
        "details": "Emitted when `owner` enables or disables (`approved`) `operator` to manage all of its assets."
      },
      "Initialized(uint8)": {
        "details": "Triggered when the contract has been initialized or reinitialized."
      },
      "Transfer(address,address,uint256)": {
        "details": "Emitted when `tokenId` token is transferred from `from` to `to`."
      }
    },
    "kind": "dev",
    "methods": {
      "approve(address,uint256)": {
        "details": "See {IERC721-approve}."
      },
      "balanceOf(address)": {
        "details": "See {IERC721-balanceOf}."
      },
      "getApproved(uint256)": {
        "details": "See {IERC721-getApproved}."
      },
      "isApprovedForAll(address,address)": {
        "details": "See {IERC721-isApprovedForAll}."
      },
      "name()": {
        "details": "See {IERC721Metadata-name}."
      },
      "ownerOf(uint256)": {
        "details": "See {IERC721-ownerOf}."
      },
      "safeTransferFrom(address,address,uint256)": {
        "details": "See {IERC721-safeTransferFrom}."
      },
      "safeTransferFrom(address,address,uint256,bytes)": {
        "details": "See {IERC721-safeTransferFrom}."
      },
      "setApprovalForAll(address,bool)": {
        "details": "See {IERC721-setApprovalForAll}."
      },
      "supportsInterface(bytes4)": {
        "details": "See {IERC165-supportsInterface}."
      },
      "symbol()": {
        "details": "See {IERC721Metadata-symbol}."
      },
      "tokenURI(uint256)": {
        "details": "See {IERC721Metadata-tokenURI}."
      },
      "transferFrom(address,address,uint256)": {
        "details": "See {IERC721-transferFrom}."
      }
    },
    "version": 1
  },
  "userdoc": {
    "events": {
      "ApplicatonApproval(address,address)": {
        "notice": "Event emitted on membership application approval by one of the members"
      },
      "DepositWithdrawal(address)": {
        "notice": "Event emitted on deposit withdrawal"
      },
      "MemberReputationChange(address,uint256,uint256)": {
        "notice": "Event emitted on member reputation change"
      },
      "NewApplication(address,string)": {
        "notice": "Event emitted on new application"
      },
      "NewMembership(address,uint256)": {
        "notice": "Event emitted on new membership start"
      },
      "TotalReputationChange(uint256,uint256)": {
        "notice": "Event emitted on total reputation change"
      }
    },
    "kind": "user",
    "methods": {
      "CLOCK_MODE()": {
        "notice": "Machine-readable description of the clock as specified in EIP-6372."
      },
      "DENOMINATOR()": {
        "notice": "Shares (fees and thresholds) denominator"
      },
      "PROTOCOL_FEE()": {
        "notice": "Protocol fee value (numerator)"
      },
      "applyForMembership(string)": {
        "notice": "Function used to apply to community"
      },
      "approveMembership(address)": {
        "notice": "Function for community members to approve acceptance of new member to community"
      },
      "clock()": {
        "notice": "Clock used for flagging checkpoints."
      },
      "delegateReputation(address,uint256)": {
        "notice": "Function to delegate reputation to other member"
      },
      "revokeReputation(address)": {
        "notice": "Function to revoke reputation delegation from member"
      },
      "startMembership()": {
        "notice": "Function called by new member to start membership after successful vote"
      },
      "withdrawUnusedDeposit(address)": {
        "notice": "Function for protocol team to withdraw unused membership deposit (in case of refusal)"
      }
    },
    "version": 1
  },
  "storageLayout": {
    "storage": [
      {
        "astId": 6,
        "contract": "contracts/Community.sol:Community",
        "label": "_initialized",
        "offset": 0,
        "slot": "0",
        "type": "t_uint8"
      },
      {
        "astId": 9,
        "contract": "contracts/Community.sol:Community",
        "label": "_initializing",
        "offset": 1,
        "slot": "0",
        "type": "t_bool"
      },
      {
        "astId": 1652,
        "contract": "contracts/Community.sol:Community",
        "label": "__gap",
        "offset": 0,
        "slot": "1",
        "type": "t_array(t_uint256)50_storage"
      },
      {
        "astId": 1925,
        "contract": "contracts/Community.sol:Community",
        "label": "__gap",
        "offset": 0,
        "slot": "51",
        "type": "t_array(t_uint256)50_storage"
      },
      {
        "astId": 197,
        "contract": "contracts/Community.sol:Community",
        "label": "_name",
        "offset": 0,
        "slot": "101",
        "type": "t_string_storage"
      },
      {
        "astId": 199,
        "contract": "contracts/Community.sol:Community",
        "label": "_symbol",
        "offset": 0,
        "slot": "102",
        "type": "t_string_storage"
      },
      {
        "astId": 203,
        "contract": "contracts/Community.sol:Community",
        "label": "_owners",
        "offset": 0,
        "slot": "103",
        "type": "t_mapping(t_uint256,t_address)"
      },
      {
        "astId": 207,
        "contract": "contracts/Community.sol:Community",
        "label": "_balances",
        "offset": 0,
        "slot": "104",
        "type": "t_mapping(t_address,t_uint256)"
      },
      {
        "astId": 211,
        "contract": "contracts/Community.sol:Community",
        "label": "_tokenApprovals",
        "offset": 0,
        "slot": "105",
        "type": "t_mapping(t_uint256,t_address)"
      },
      {
        "astId": 217,
        "contract": "contracts/Community.sol:Community",
        "label": "_operatorApprovals",
        "offset": 0,
        "slot": "106",
        "type": "t_mapping(t_address,t_mapping(t_address,t_bool))"
      },
      {
        "astId": 1119,
        "contract": "contracts/Community.sol:Community",
        "label": "__gap",
        "offset": 0,
        "slot": "107",
        "type": "t_array(t_uint256)44_storage"
      },
      {
        "astId": 7101,
        "contract": "contracts/Community.sol:Community",
        "label": "factory",
        "offset": 0,
        "slot": "151",
        "type": "t_contract(ICommunityFactory)8245"
      },
      {
        "astId": 7103,
        "contract": "contracts/Community.sol:Community",
        "label": "rulesURI",
        "offset": 0,
        "slot": "152",
        "type": "t_string_storage"
      },
      {
        "astId": 7105,
        "contract": "contracts/Community.sol:Community",
        "label": "membershipDeposit",
        "offset": 0,
        "slot": "153",
        "type": "t_uint256"
      },
      {
        "astId": 7107,
        "contract": "contracts/Community.sol:Community",
        "label": "membershipVotesThreshold",
        "offset": 0,
        "slot": "154",
        "type": "t_uint256"
      },
      {
        "astId": 7109,
        "contract": "contracts/Community.sol:Community",
        "label": "votingDuration",
        "offset": 0,
        "slot": "155",
        "type": "t_uint256"
      },
      {
        "astId": 7121,
        "contract": "contracts/Community.sol:Community",
        "label": "applications",
        "offset": 0,
        "slot": "156",
        "type": "t_mapping(t_address,t_struct(Application)7116_storage)"
      },
      {
        "astId": 7127,
        "contract": "contracts/Community.sol:Community",
        "label": "hasVoted",
        "offset": 0,
        "slot": "157",
        "type": "t_mapping(t_address,t_mapping(t_address,t_bool))"
      },
      {
        "astId": 7131,
        "contract": "contracts/Community.sol:Community",
        "label": "unusedDepositOf",
        "offset": 0,
        "slot": "158",
        "type": "t_mapping(t_address,t_uint256)"
      },
      {
        "astId": 7133,
        "contract": "contracts/Community.sol:Community",
        "label": "nextTokenId",
        "offset": 0,
        "slot": "159",
        "type": "t_uint256"
      },
      {
        "astId": 7139,
        "contract": "contracts/Community.sol:Community",
        "label": "delegatedFromTo",
        "offset": 0,
        "slot": "160",
        "type": "t_mapping(t_address,t_mapping(t_address,t_uint256))"
      },
      {
        "astId": 7144,
        "contract": "contracts/Community.sol:Community",
        "label": "_delegateCheckpoints",
        "offset": 0,
        "slot": "161",
        "type": "t_mapping(t_address,t_struct(Trace224)3643_storage)"
      },
      {
        "astId": 7147,
        "contract": "contracts/Community.sol:Community",
        "label": "_totalCheckpoints",
        "offset": 0,
        "slot": "162",
        "type": "t_struct(Trace224)3643_storage"
      }
    ],
    "types": {
      "t_address": {
        "encoding": "inplace",
        "label": "address",
        "numberOfBytes": "20"
      },
      "t_array(t_struct(Checkpoint224)3648_storage)dyn_storage": {
        "base": "t_struct(Checkpoint224)3648_storage",
        "encoding": "dynamic_array",
        "label": "struct Checkpoints.Checkpoint224[]",
        "numberOfBytes": "32"
      },
      "t_array(t_uint256)44_storage": {
        "base": "t_uint256",
        "encoding": "inplace",
        "label": "uint256[44]",
        "numberOfBytes": "1408"
      },
      "t_array(t_uint256)50_storage": {
        "base": "t_uint256",
        "encoding": "inplace",
        "label": "uint256[50]",
        "numberOfBytes": "1600"
      },
      "t_bool": {
        "encoding": "inplace",
        "label": "bool",
        "numberOfBytes": "1"
      },
      "t_contract(ICommunityFactory)8245": {
        "encoding": "inplace",
        "label": "contract ICommunityFactory",
        "numberOfBytes": "20"
      },
      "t_mapping(t_address,t_bool)": {
        "encoding": "mapping",
        "key": "t_address",
        "label": "mapping(address => bool)",
        "numberOfBytes": "32",
        "value": "t_bool"
      },
      "t_mapping(t_address,t_mapping(t_address,t_bool))": {
        "encoding": "mapping",
        "key": "t_address",
        "label": "mapping(address => mapping(address => bool))",
        "numberOfBytes": "32",
        "value": "t_mapping(t_address,t_bool)"
      },
      "t_mapping(t_address,t_mapping(t_address,t_uint256))": {
        "encoding": "mapping",
        "key": "t_address",
        "label": "mapping(address => mapping(address => uint256))",
        "numberOfBytes": "32",
        "value": "t_mapping(t_address,t_uint256)"
      },
      "t_mapping(t_address,t_struct(Application)7116_storage)": {
        "encoding": "mapping",
        "key": "t_address",
        "label": "mapping(address => struct Community.Application)",
        "numberOfBytes": "32",
        "value": "t_struct(Application)7116_storage"
      },
      "t_mapping(t_address,t_struct(Trace224)3643_storage)": {
        "encoding": "mapping",
        "key": "t_address",
        "label": "mapping(address => struct Checkpoints.Trace224)",
        "numberOfBytes": "32",
        "value": "t_struct(Trace224)3643_storage"
      },
      "t_mapping(t_address,t_uint256)": {
        "encoding": "mapping",
        "key": "t_address",
        "label": "mapping(address => uint256)",
        "numberOfBytes": "32",
        "value": "t_uint256"
      },
      "t_mapping(t_uint256,t_address)": {
        "encoding": "mapping",
        "key": "t_uint256",
        "label": "mapping(uint256 => address)",
        "numberOfBytes": "32",
        "value": "t_address"
      },
      "t_string_storage": {
        "encoding": "bytes",
        "label": "string",
        "numberOfBytes": "32"
      },
      "t_struct(Application)7116_storage": {
        "encoding": "inplace",
        "label": "struct Community.Application",
        "members": [
          {
            "astId": 7111,
            "contract": "contracts/Community.sol:Community",
            "label": "dataURI",
            "offset": 0,
            "slot": "0",
            "type": "t_string_storage"
          },
          {
            "astId": 7113,
            "contract": "contracts/Community.sol:Community",
            "label": "blockNumber",
            "offset": 0,
            "slot": "1",
            "type": "t_uint256"
          },
          {
            "astId": 7115,
            "contract": "contracts/Community.sol:Community",
            "label": "votesFor",
            "offset": 0,
            "slot": "2",
            "type": "t_uint256"
          }
        ],
        "numberOfBytes": "96"
      },
      "t_struct(Checkpoint224)3648_storage": {
        "encoding": "inplace",
        "label": "struct Checkpoints.Checkpoint224",
        "members": [
          {
            "astId": 3645,
            "contract": "contracts/Community.sol:Community",
            "label": "_key",
            "offset": 0,
            "slot": "0",
            "type": "t_uint32"
          },
          {
            "astId": 3647,
            "contract": "contracts/Community.sol:Community",
            "label": "_value",
            "offset": 4,
            "slot": "0",
            "type": "t_uint224"
          }
        ],
        "numberOfBytes": "32"
      },
      "t_struct(Trace224)3643_storage": {
        "encoding": "inplace",
        "label": "struct Checkpoints.Trace224",
        "members": [
          {
            "astId": 3642,
            "contract": "contracts/Community.sol:Community",
            "label": "_checkpoints",
            "offset": 0,
            "slot": "0",
            "type": "t_array(t_struct(Checkpoint224)3648_storage)dyn_storage"
          }
        ],
        "numberOfBytes": "32"
      },
      "t_uint224": {
        "encoding": "inplace",
        "label": "uint224",
        "numberOfBytes": "28"
      },
      "t_uint256": {
        "encoding": "inplace",
        "label": "uint256",
        "numberOfBytes": "32"
      },
      "t_uint32": {
        "encoding": "inplace",
        "label": "uint32",
        "numberOfBytes": "4"
      },
      "t_uint8": {
        "encoding": "inplace",
        "label": "uint8",
        "numberOfBytes": "1"
      }
    }
  }
}